{"abi":[{"type":"constructor","inputs":[{"name":"_token","type":"address","internalType":"address"}],"stateMutability":"nonpayable"},{"type":"function","name":"balances","inputs":[{"name":"","type":"address","internalType":"address"}],"outputs":[{"name":"","type":"uint256","internalType":"uint256"}],"stateMutability":"view"},{"type":"function","name":"deposit","inputs":[{"name":"amount","type":"uint256","internalType":"uint256"}],"outputs":[],"stateMutability":"nonpayable"},{"type":"function","name":"getBalance","inputs":[{"name":"user","type":"address","internalType":"address"}],"outputs":[{"name":"","type":"uint256","internalType":"uint256"}],"stateMutability":"view"},{"type":"function","name":"token","inputs":[],"outputs":[{"name":"","type":"address","internalType":"contract IERC20"}],"stateMutability":"view"},{"type":"function","name":"withdrawAll","inputs":[],"outputs":[],"stateMutability":"nonpayable"},{"type":"event","name":"Deposited","inputs":[{"name":"user","type":"address","indexed":true,"internalType":"address"},{"name":"amount","type":"uint256","indexed":false,"internalType":"uint256"}],"anonymous":false},{"type":"event","name":"Withdrawn","inputs":[{"name":"user","type":"address","indexed":true,"internalType":"address"},{"name":"amount","type":"uint256","indexed":false,"internalType":"uint256"}],"anonymous":false}],"bytecode":{"object":"0x60a060405234801561000f575f80fd5b50604051610907380380610907833981810160405281019061003191906100c9565b8073ffffffffffffffffffffffffffffffffffffffff1660808173ffffffffffffffffffffffffffffffffffffffff1681525050506100f4565b5f80fd5b5f73ffffffffffffffffffffffffffffffffffffffff82169050919050565b5f6100988261006f565b9050919050565b6100a88161008e565b81146100b2575f80fd5b50565b5f815190506100c38161009f565b92915050565b5f602082840312156100de576100dd61006b565b5b5f6100eb848285016100b5565b91505092915050565b6080516107ed61011a5f395f8181610195015281816102c3015261044901526107ed5ff3fe608060405234801561000f575f80fd5b5060043610610055575f3560e01c806327e235e314610059578063853828b614610089578063b6b55f2514610093578063f8b2cb4f146100af578063fc0c546a146100df575b5f80fd5b610073600480360381019061006e91906104c9565b6100fd565b604051610080919061050c565b60405180910390f35b610091610111565b005b6100ad60048036038101906100a8919061054f565b6102c1565b005b6100c960048036038101906100c491906104c9565b610402565b6040516100d6919061050c565b60405180910390f35b6100e7610447565b6040516100f491906105d5565b60405180910390f35b5f602052805f5260405f205f915090505481565b5f805f3373ffffffffffffffffffffffffffffffffffffffff1673ffffffffffffffffffffffffffffffffffffffff1681526020019081526020015f205490505f8111610193576040517f08c379a000000000000000000000000000000000000000000000000000000000815260040161018a9061066e565b60405180910390fd5b7f000000000000000000000000000000000000000000000000000000000000000073ffffffffffffffffffffffffffffffffffffffff1663a9059cbb33836040518363ffffffff1660e01b81526004016101ee92919061069b565b6020604051808303815f875af115801561020a573d5f803e3d5ffd5b505050506040513d601f19601f8201168201806040525081019061022e91906106f7565b505f805f3373ffffffffffffffffffffffffffffffffffffffff1673ffffffffffffffffffffffffffffffffffffffff1681526020019081526020015f20819055503373ffffffffffffffffffffffffffffffffffffffff167f7084f5476618d8e60b11ef0d7d3f06914655adb8793e28ff7f018d4c76d505d5826040516102b6919061050c565b60405180910390a250565b7f000000000000000000000000000000000000000000000000000000000000000073ffffffffffffffffffffffffffffffffffffffff166323b872dd3330846040518463ffffffff1660e01b815260040161031e93929190610722565b6020604051808303815f875af115801561033a573d5f803e3d5ffd5b505050506040513d601f19601f8201168201806040525081019061035e91906106f7565b50805f803373ffffffffffffffffffffffffffffffffffffffff1673ffffffffffffffffffffffffffffffffffffffff1681526020019081526020015f205f8282546103aa9190610784565b925050819055503373ffffffffffffffffffffffffffffffffffffffff167f2da466a7b24304f47e87fa2e1e5a81b9831ce54fec19055ce277ca2f39ba42c4826040516103f7919061050c565b60405180910390a250565b5f805f8373ffffffffffffffffffffffffffffffffffffffff1673ffffffffffffffffffffffffffffffffffffffff1681526020019081526020015f20549050919050565b7f000000000000000000000000000000000000000000000000000000000000000081565b5f80fd5b5f73ffffffffffffffffffffffffffffffffffffffff82169050919050565b5f6104988261046f565b9050919050565b6104a88161048e565b81146104b2575f80fd5b50565b5f813590506104c38161049f565b92915050565b5f602082840312156104de576104dd61046b565b5b5f6104eb848285016104b5565b91505092915050565b5f819050919050565b610506816104f4565b82525050565b5f60208201905061051f5f8301846104fd565b92915050565b61052e816104f4565b8114610538575f80fd5b50565b5f8135905061054981610525565b92915050565b5f602082840312156105645761056361046b565b5b5f6105718482850161053b565b91505092915050565b5f819050919050565b5f61059d6105986105938461046f565b61057a565b61046f565b9050919050565b5f6105ae82610583565b9050919050565b5f6105bf826105a4565b9050919050565b6105cf816105b5565b82525050565b5f6020820190506105e85f8301846105c6565b92915050565b5f82825260208201905092915050565b7f56756c6e657261626c655661756c743a206e6f7468696e6720746f20776974685f8201527f6472617700000000000000000000000000000000000000000000000000000000602082015250565b5f6106586024836105ee565b9150610663826105fe565b604082019050919050565b5f6020820190508181035f8301526106858161064c565b9050919050565b6106958161048e565b82525050565b5f6040820190506106ae5f83018561068c565b6106bb60208301846104fd565b9392505050565b5f8115159050919050565b6106d6816106c2565b81146106e0575f80fd5b50565b5f815190506106f1816106cd565b92915050565b5f6020828403121561070c5761070b61046b565b5b5f610719848285016106e3565b91505092915050565b5f6060820190506107355f83018661068c565b610742602083018561068c565b61074f60408301846104fd565b949350505050565b7f4e487b71000000000000000000000000000000000000000000000000000000005f52601160045260245ffd5b5f61078e826104f4565b9150610799836104f4565b92508282019050808211156107b1576107b0610757565b5b9291505056fea264697066735822122007c7470006ec4d8151323540357643419024321c7309b12ccf11ce7b1d1cafee64736f6c63430008180033","linkReferences":{}},"methodIdentifiers":{"balances(address)":"27e235e3","deposit(uint256)":"b6b55f25","getBalance(address)":"f8b2cb4f","token()":"fc0c546a","withdrawAll()":"853828b6"},"id":26}