{"abi":[{"type":"constructor","inputs":[{"name":"_vault","type":"address","internalType":"address"},{"name":"_token","type":"address","internalType":"address"},{"name":"_recoveryAddress","type":"address","internalType":"address"},{"name":"_bountyBps","type":"uint256","internalType":"uint256"}],"stateMutability":"nonpayable"},{"type":"function","name":"attack","inputs":[{"name":"seedAmount","type":"uint256","internalType":"uint256"}],"outputs":[],"stateMutability":"nonpayable"},{"type":"function","name":"bountyBps","inputs":[],"outputs":[{"name":"","type":"uint256","internalType":"uint256"}],"stateMutability":"view"},{"type":"function","name":"onTokenReceived","inputs":[{"name":"","type":"address","internalType":"address"},{"name":"","type":"uint256","internalType":"uint256"}],"outputs":[],"stateMutability":"nonpayable"},{"type":"function","name":"owner","inputs":[],"outputs":[{"name":"","type":"address","internalType":"address"}],"stateMutability":"view"},{"type":"function","name":"recoveryAddress","inputs":[],"outputs":[{"name":"","type":"address","internalType":"address"}],"stateMutability":"view"},{"type":"function","name":"token","inputs":[],"outputs":[{"name":"","type":"address","internalType":"contract IERC20"}],"stateMutability":"view"},{"type":"function","name":"vault","inputs":[],"outputs":[{"name":"","type":"address","internalType":"contract IVulnerableVault"}],"stateMutability":"view"}],"bytecode":{"object":"0x61012060405234801562000011575f80fd5b5060405162000ff338038062000ff38339818101604052810190620000379190620001b7565b8373ffffffffffffffffffffffffffffffffffffffff1660808173ffffffffffffffffffffffffffffffffffffffff16815250508273ffffffffffffffffffffffffffffffffffffffff1660a08173ffffffffffffffffffffffffffffffffffffffff16815250508173ffffffffffffffffffffffffffffffffffffffff1660c08173ffffffffffffffffffffffffffffffffffffffff16815250508060e081815250503373ffffffffffffffffffffffffffffffffffffffff166101008173ffffffffffffffffffffffffffffffffffffffff16815250505050505062000226565b5f80fd5b5f73ffffffffffffffffffffffffffffffffffffffff82169050919050565b5f62000149826200011e565b9050919050565b6200015b816200013d565b811462000166575f80fd5b50565b5f81519050620001798162000150565b92915050565b5f819050919050565b62000193816200017f565b81146200019e575f80fd5b50565b5f81519050620001b18162000188565b92915050565b5f805f8060808587031215620001d257620001d16200011a565b5b5f620001e18782880162000169565b9450506020620001f48782880162000169565b9350506040620002078782880162000169565b92505060606200021a87828801620001a1565b91505092959194509250565b60805160a05160c05160e05161010051610d26620002cd5f395f81816102c7015281816107a9015261085301525f81816102a3015261066a01525f81816106ed015261082f01525f818161016401528181610355015281816103f6015281816105cc015281816106b10152818161076d015261089b01525f81816101a00152818161022301528181610432015281816104b20152818161053801526108770152610d265ff3fe608060405234801561000f575f80fd5b506004361061007b575f3560e01c8063710eb26c11610059578063710eb26c146100d55780638da5cb5b146100f3578063fbfa77cf14610111578063fc0c546a1461012f5761007b565b80631035fb5c1461007f578063415307cc1461009b57806364dd891a146100b9575b5f80fd5b6100996004803603810190610094919061094e565b61014d565b005b6100a36102a1565b6040516100b0919061099b565b60405180910390f35b6100d360048036038101906100ce91906109b4565b6102c5565b005b6100dd61082d565b6040516100ea91906109ee565b60405180910390f35b6100fb610851565b60405161010891906109ee565b60405180910390f35b610119610875565b6040516101269190610a62565b60405180910390f35b610137610899565b6040516101449190610a9b565b60405180910390f35b5f8054906101000a900460ff16801561021c57505f7f000000000000000000000000000000000000000000000000000000000000000073ffffffffffffffffffffffffffffffffffffffff166370a082317f00000000000000000000000000000000000000000000000000000000000000006040518263ffffffff1660e01b81526004016101db91906109ee565b602060405180830381865afa1580156101f6573d5f803e3d5ffd5b505050506040513d601f19601f8201168201806040525081019061021a9190610ac8565b115b1561029d577f000000000000000000000000000000000000000000000000000000000000000073ffffffffffffffffffffffffffffffffffffffff1663853828b66040518163ffffffff1660e01b81526004015f604051808303815f87803b158015610286575f80fd5b505af1158015610298573d5f803e3d5ffd5b505050505b5050565b7f000000000000000000000000000000000000000000000000000000000000000081565b7f000000000000000000000000000000000000000000000000000000000000000073ffffffffffffffffffffffffffffffffffffffff163373ffffffffffffffffffffffffffffffffffffffff1614610353576040517f08c379a000000000000000000000000000000000000000000000000000000000815260040161034a90610b4d565b60405180910390fd5b7f000000000000000000000000000000000000000000000000000000000000000073ffffffffffffffffffffffffffffffffffffffff166340c10f1930836040518363ffffffff1660e01b81526004016103ae929190610b6b565b5f604051808303815f87803b1580156103c5575f80fd5b505af11580156103d7573d5f803e3d5ffd5b5050505060015f806101000a81548160ff0219169083151502179055507f000000000000000000000000000000000000000000000000000000000000000073ffffffffffffffffffffffffffffffffffffffff1663095ea7b37f0000000000000000000000000000000000000000000000000000000000000000836040518363ffffffff1660e01b815260040161046f929190610b6b565b6020604051808303815f875af115801561048b573d5f803e3d5ffd5b505050506040513d601f19601f820116820180604052508101906104af9190610bc7565b507f000000000000000000000000000000000000000000000000000000000000000073ffffffffffffffffffffffffffffffffffffffff1663b6b55f25826040518263ffffffff1660e01b8152600401610509919061099b565b5f604051808303815f87803b158015610520575f80fd5b505af1158015610532573d5f803e3d5ffd5b505050507f000000000000000000000000000000000000000000000000000000000000000073ffffffffffffffffffffffffffffffffffffffff1663853828b66040518163ffffffff1660e01b81526004015f604051808303815f87803b15801561059b575f80fd5b505af11580156105ad573d5f803e3d5ffd5b505050505f805f6101000a81548160ff0219169083151502179055505f7f000000000000000000000000000000000000000000000000000000000000000073ffffffffffffffffffffffffffffffffffffffff166370a08231306040518263ffffffff1660e01b815260040161062391906109ee565b602060405180830381865afa15801561063e573d5f803e3d5ffd5b505050506040513d601f19601f820116820180604052508101906106629190610ac8565b90505f6127107f0000000000000000000000000000000000000000000000000000000000000000836106949190610c1f565b61069e9190610c8d565b90505f81836106ad9190610cbd565b90507f000000000000000000000000000000000000000000000000000000000000000073ffffffffffffffffffffffffffffffffffffffff1663a9059cbb7f0000000000000000000000000000000000000000000000000000000000000000836040518363ffffffff1660e01b815260040161072a929190610b6b565b6020604051808303815f875af1158015610746573d5f803e3d5ffd5b505050506040513d601f19601f8201168201806040525081019061076a9190610bc7565b507f000000000000000000000000000000000000000000000000000000000000000073ffffffffffffffffffffffffffffffffffffffff1663a9059cbb7f0000000000000000000000000000000000000000000000000000000000000000846040518363ffffffff1660e01b81526004016107e6929190610b6b565b6020604051808303815f875af1158015610802573d5f803e3d5ffd5b505050506040513d601f19601f820116820180604052508101906108269190610bc7565b5050505050565b7f000000000000000000000000000000000000000000000000000000000000000081565b7f000000000000000000000000000000000000000000000000000000000000000081565b7f000000000000000000000000000000000000000000000000000000000000000081565b7f000000000000000000000000000000000000000000000000000000000000000081565b5f80fd5b5f73ffffffffffffffffffffffffffffffffffffffff82169050919050565b5f6108ea826108c1565b9050919050565b6108fa816108e0565b8114610904575f80fd5b50565b5f81359050610915816108f1565b92915050565b5f819050919050565b61092d8161091b565b8114610937575f80fd5b50565b5f8135905061094881610924565b92915050565b5f8060408385031215610964576109636108bd565b5b5f61097185828601610907565b92505060206109828582860161093a565b9150509250929050565b6109958161091b565b82525050565b5f6020820190506109ae5f83018461098c565b92915050565b5f602082840312156109c9576109c86108bd565b5b5f6109d68482850161093a565b91505092915050565b6109e8816108e0565b82525050565b5f602082019050610a015f8301846109df565b92915050565b5f819050919050565b5f610a2a610a25610a20846108c1565b610a07565b6108c1565b9050919050565b5f610a3b82610a10565b9050919050565b5f610a4c82610a31565b9050919050565b610a5c81610a42565b82525050565b5f602082019050610a755f830184610a53565b92915050565b5f610a8582610a31565b9050919050565b610a9581610a7b565b82525050565b5f602082019050610aae5f830184610a8c565b92915050565b5f81519050610ac281610924565b92915050565b5f60208284031215610add57610adc6108bd565b5b5f610aea84828501610ab4565b91505092915050565b5f82825260208201905092915050565b7f41747461636b65723a206f6e6c79206f776e65720000000000000000000000005f82015250565b5f610b37601483610af3565b9150610b4282610b03565b602082019050919050565b5f6020820190508181035f830152610b6481610b2b565b9050919050565b5f604082019050610b7e5f8301856109df565b610b8b602083018461098c565b9392505050565b5f8115159050919050565b610ba681610b92565b8114610bb0575f80fd5b50565b5f81519050610bc181610b9d565b92915050565b5f60208284031215610bdc57610bdb6108bd565b5b5f610be984828501610bb3565b91505092915050565b7f4e487b71000000000000000000000000000000000000000000000000000000005f52601160045260245ffd5b5f610c298261091b565b9150610c348361091b565b9250828202610c428161091b565b91508282048414831517610c5957610c58610bf2565b5b5092915050565b7f4e487b71000000000000000000000000000000000000000000000000000000005f52601260045260245ffd5b5f610c978261091b565b9150610ca28361091b565b925082610cb257610cb1610c60565b5b828204905092915050565b5f610cc78261091b565b9150610cd28361091b565b9250828203905081811115610cea57610ce9610bf2565b5b9291505056fea26469706673582212205e5f3aa82babc5f934378827b2dda161aa02710590886d862c8da1c0afe11dfd64736f6c63430008180033","linkReferences":{}},"methodIdentifiers":{"attack(uint256)":"64dd891a","bountyBps()":"415307cc","onTokenReceived(address,uint256)":"1035fb5c","owner()":"8da5cb5b","recoveryAddress()":"710eb26c","token()":"fc0c546a","vault()":"fbfa77cf"},"id":24}